{
  "contractName": "Token",
  "abi": [
    {
      "inputs": [
        {
          "internalType": "uint256",
          "name": "_total",
          "type": "uint256"
        }
      ],
      "payable": false,
      "stateMutability": "nonpayable",
      "type": "constructor"
    },
    {
      "anonymous": false,
      "inputs": [
        {
          "indexed": false,
          "internalType": "address",
          "name": "_from",
          "type": "address"
        },
        {
          "indexed": false,
          "internalType": "address[]",
          "name": "_to",
          "type": "address[]"
        },
        {
          "indexed": false,
          "internalType": "uint256[]",
          "name": "_ammounts",
          "type": "uint256[]"
        }
      ],
      "name": "Airdrop",
      "type": "event"
    },
    {
      "anonymous": false,
      "inputs": [
        {
          "indexed": false,
          "internalType": "address",
          "name": "_address",
          "type": "address"
        },
        {
          "indexed": false,
          "internalType": "uint256",
          "name": "_balance",
          "type": "uint256"
        }
      ],
      "name": "Balance",
      "type": "event"
    },
    {
      "anonymous": false,
      "inputs": [
        {
          "indexed": false,
          "internalType": "address",
          "name": "_address",
          "type": "address"
        },
        {
          "indexed": false,
          "internalType": "uint256",
          "name": "_ammount",
          "type": "uint256"
        }
      ],
      "name": "Burn",
      "type": "event"
    },
    {
      "anonymous": false,
      "inputs": [
        {
          "indexed": false,
          "internalType": "address",
          "name": "_from",
          "type": "address"
        },
        {
          "indexed": false,
          "internalType": "address",
          "name": "_to",
          "type": "address"
        },
        {
          "indexed": false,
          "internalType": "uint256",
          "name": "_ammount",
          "type": "uint256"
        }
      ],
      "name": "Transfer",
      "type": "event"
    },
    {
      "constant": true,
      "inputs": [
        {
          "internalType": "address",
          "name": "",
          "type": "address"
        }
      ],
      "name": "balance",
      "outputs": [
        {
          "internalType": "uint256",
          "name": "",
          "type": "uint256"
        }
      ],
      "payable": false,
      "stateMutability": "view",
      "type": "function"
    },
    {
      "constant": true,
      "inputs": [],
      "name": "name",
      "outputs": [
        {
          "internalType": "string",
          "name": "",
          "type": "string"
        }
      ],
      "payable": false,
      "stateMutability": "view",
      "type": "function"
    },
    {
      "constant": true,
      "inputs": [],
      "name": "owner",
      "outputs": [
        {
          "internalType": "address",
          "name": "",
          "type": "address"
        }
      ],
      "payable": false,
      "stateMutability": "view",
      "type": "function"
    },
    {
      "constant": true,
      "inputs": [],
      "name": "symbol",
      "outputs": [
        {
          "internalType": "string",
          "name": "",
          "type": "string"
        }
      ],
      "payable": false,
      "stateMutability": "view",
      "type": "function"
    },
    {
      "constant": true,
      "inputs": [],
      "name": "totalAmmount",
      "outputs": [
        {
          "internalType": "uint256",
          "name": "",
          "type": "uint256"
        }
      ],
      "payable": false,
      "stateMutability": "view",
      "type": "function"
    },
    {
      "constant": false,
      "inputs": [
        {
          "internalType": "address",
          "name": "_address",
          "type": "address"
        },
        {
          "internalType": "uint256",
          "name": "_value",
          "type": "uint256"
        }
      ],
      "name": "depositTokens",
      "outputs": [
        {
          "internalType": "uint256",
          "name": "newBalance",
          "type": "uint256"
        }
      ],
      "payable": false,
      "stateMutability": "nonpayable",
      "type": "function"
    },
    {
      "constant": false,
      "inputs": [
        {
          "internalType": "address",
          "name": "_from",
          "type": "address"
        },
        {
          "internalType": "address",
          "name": "_to",
          "type": "address"
        },
        {
          "internalType": "uint256",
          "name": "_ammount",
          "type": "uint256"
        }
      ],
      "name": "transfer",
      "outputs": [
        {
          "internalType": "bool",
          "name": "success",
          "type": "bool"
        }
      ],
      "payable": false,
      "stateMutability": "nonpayable",
      "type": "function"
    },
    {
      "constant": false,
      "inputs": [
        {
          "internalType": "address",
          "name": "_from",
          "type": "address"
        },
        {
          "internalType": "address[]",
          "name": "_to",
          "type": "address[]"
        },
        {
          "internalType": "uint256[]",
          "name": "_ammount",
          "type": "uint256[]"
        }
      ],
      "name": "airdrop",
      "outputs": [
        {
          "internalType": "bool",
          "name": "success",
          "type": "bool"
        }
      ],
      "payable": false,
      "stateMutability": "nonpayable",
      "type": "function"
    },
    {
      "constant": false,
      "inputs": [
        {
          "internalType": "address",
          "name": "_address",
          "type": "address"
        },
        {
          "internalType": "uint256",
          "name": "_ammount",
          "type": "uint256"
        }
      ],
      "name": "burn",
      "outputs": [
        {
          "internalType": "bool",
          "name": "success",
          "type": "bool"
        }
      ],
      "payable": false,
      "stateMutability": "nonpayable",
      "type": "function"
    },
    {
      "constant": false,
      "inputs": [
        {
          "internalType": "address",
          "name": "_address",
          "type": "address"
        }
      ],
      "name": "getBalance",
      "outputs": [
        {
          "internalType": "uint256",
          "name": "gotbalance",
          "type": "uint256"
        }
      ],
      "payable": false,
      "stateMutability": "nonpayable",
      "type": "function"
    }
  ],
  "bytecode": "0x60806040526040518060400160405280600681526020017f542d436f696e0000000000000000000000000000000000000000000000000000815250600190805190602001906200005192919062000991565b506040518060400160405280600281526020017f5443000000000000000000000000000000000000000000000000000000000000815250600290805190602001906200009f92919062000991565b50348015620000ad57600080fd5b50604051620019593803806200195983398181016040526020811015620000d357600080fd5b8101908080519060200190929190505050336000806101000a81548173ffffffffffffffffffffffffffffffffffffffff021916908373ffffffffffffffffffffffffffffffffffffffff1602179055506040518060400160405280600681526020017f542d436f696e0000000000000000000000000000000000000000000000000000815250600190805190602001906200017192919062000991565b506040518060400160405280600281526020017f544300000000000000000000000000000000000000000000000000000000000081525060029080519060200190620001bf92919062000991565b5080600381905550600354600460008060009054906101000a900473ffffffffffffffffffffffffffffffffffffffff1673ffffffffffffffffffffffffffffffffffffffff1673ffffffffffffffffffffffffffffffffffffffff16815260200190815260200160002081905550600073621d58ed97f126d5df7c55f951eaea87e888aff190506000736d53e5134eb72a66970db0f13e11bb8efa0af55090506000736192c2d89cc95764420b26d36861340dd143177c905060606003604051908082528060200260200182016040528015620002ac5781602001602082028038833980820191505090505b5090508381600081518110620002be57fe5b602002602001019073ffffffffffffffffffffffffffffffffffffffff16908173ffffffffffffffffffffffffffffffffffffffff168152505082816001815181106200030757fe5b602002602001019073ffffffffffffffffffffffffffffffffffffffff16908173ffffffffffffffffffffffffffffffffffffffff168152505081816002815181106200035057fe5b602002602001019073ffffffffffffffffffffffffffffffffffffffff16908173ffffffffffffffffffffffffffffffffffffffff168152505060606003604051908082528060200260200182016040528015620003bd5781602001602082028038833980820191505090505b509050620f424081600081518110620003d257fe5b602002602001018181525050622625a081600181518110620003f057fe5b60200260200101818152505062989680816002815181106200040e57fe5b6020026020010181815250506200044e6000809054906101000a900473ffffffffffffffffffffffffffffffffffffffff168383620005bc60201b60201c565b620004c1576040517f08c379a00000000000000000000000000000000000000000000000000000000081526004018080602001828103825260178152602001807f4572726f72207768696c652061697264726f7070696e6700000000000000000081525060200191505060405180910390fd5b6200053d6000809054906101000a900473ffffffffffffffffffffffffffffffffffffffff1682600281518110620004f557fe5b6020026020010151836001815181106200050b57fe5b6020026020010151846000815181106200052157fe5b602002602001015101016301312d00036200083360201b60201c565b620005b0576040517f08c379a00000000000000000000000000000000000000000000000000000000081526004018080602001828103825260138152602001807f4572726f72207768696c65206275726e696e670000000000000000000000000081525060200191505060405180910390fd5b50505050505062000a40565b600080600090505b83518110156200082757828181518110620005db57fe5b6020026020010151600460008773ffffffffffffffffffffffffffffffffffffffff1673ffffffffffffffffffffffffffffffffffffffff1681526020019081526020016000205410156200067c576040517f08c379a00000000000000000000000000000000000000000000000000000000081526004018080602001828103825260228152602001806200190c6022913960400191505060405180910390fd5b8281815181106200068957fe5b6020026020010151600460008773ffffffffffffffffffffffffffffffffffffffff1673ffffffffffffffffffffffffffffffffffffffff16815260200190815260200160002060008282540392505081905550828181518110620006ea57fe5b6020026020010151600460008684815181106200070357fe5b602002602001015173ffffffffffffffffffffffffffffffffffffffff1673ffffffffffffffffffffffffffffffffffffffff168152602001908152602001600020600082825401925050819055507fddf252ad1be2c89b69c2b068fc378daa952ba7f163c4a11628f55a4df523b3ef858583815181106200078157fe5b60200260200101518584815181106200079657fe5b6020026020010151604051808473ffffffffffffffffffffffffffffffffffffffff1673ffffffffffffffffffffffffffffffffffffffff1681526020018373ffffffffffffffffffffffffffffffffffffffff1673ffffffffffffffffffffffffffffffffffffffff168152602001828152602001935050505060405180910390a18080600101915050620005c4565b50600190509392505050565b600081600460008573ffffffffffffffffffffffffffffffffffffffff1673ffffffffffffffffffffffffffffffffffffffff168152602001908152602001600020541015620008cf576040517f08c379a000000000000000000000000000000000000000000000000000000000815260040180806020018281038252602b8152602001806200192e602b913960400191505060405180910390fd5b81600460008573ffffffffffffffffffffffffffffffffffffffff1673ffffffffffffffffffffffffffffffffffffffff168152602001908152602001600020600082825403925050819055507fcc16f5dbb4873280815c1ee09dbd06736cffcc184412cf7a71a0fdb75d397ca58383604051808373ffffffffffffffffffffffffffffffffffffffff1673ffffffffffffffffffffffffffffffffffffffff1681526020018281526020019250505060405180910390a16001905092915050565b828054600181600116156101000203166002900490600052602060002090601f016020900481019282601f10620009d457805160ff191683800117855562000a05565b8280016001018555821562000a05579182015b8281111562000a04578251825591602001919060010190620009e7565b5b50905062000a14919062000a18565b5090565b62000a3d91905b8082111562000a3957600081600090555060010162000a1f565b5090565b90565b610ebc8062000a506000396000f3fe608060405234801561001057600080fd5b506004361061009e5760003560e01c806395d89b411161006657806395d89b41146103745780639dc29fac146103f7578063beabacc81461045d578063e3d670d7146104e3578063f8b2cb4f1461053b5761009e565b8063025ff12f146100a357806306fdde03146102275780631c334aab146102aa57806366168bd7146102c85780638da5cb5b1461032a575b600080fd5b61020d600480360360608110156100b957600080fd5b81019080803573ffffffffffffffffffffffffffffffffffffffff169060200190929190803590602001906401000000008111156100f657600080fd5b82018360208201111561010857600080fd5b8035906020019184602083028401116401000000008311171561012a57600080fd5b919080806020026020016040519081016040528093929190818152602001838360200280828437600081840152601f19601f8201169050808301925050505050505091929192908035906020019064010000000081111561018a57600080fd5b82018360208201111561019c57600080fd5b803590602001918460208302840111640100000000831117156101be57600080fd5b919080806020026020016040519081016040528093929190818152602001838360200280828437600081840152601f19601f820116905080830192505050505050509192919290505050610593565b604051808215151515815260200191505060405180910390f35b61022f610800565b6040518080602001828103825283818151815260200191508051906020019080838360005b8381101561026f578082015181840152602081019050610254565b50505050905090810190601f16801561029c5780820380516001836020036101000a031916815260200191505b509250505060405180910390f35b6102b261089e565b6040518082815260200191505060405180910390f35b610314600480360360408110156102de57600080fd5b81019080803573ffffffffffffffffffffffffffffffffffffffff169060200190929190803590602001909291905050506108a4565b6040518082815260200191505060405180910390f35b610332610932565b604051808273ffffffffffffffffffffffffffffffffffffffff1673ffffffffffffffffffffffffffffffffffffffff16815260200191505060405180910390f35b61037c610957565b6040518080602001828103825283818151815260200191508051906020019080838360005b838110156103bc5780820151818401526020810190506103a1565b50505050905090810190601f1680156103e95780820380516001836020036101000a031916815260200191505b509250505060405180910390f35b6104436004803603604081101561040d57600080fd5b81019080803573ffffffffffffffffffffffffffffffffffffffff169060200190929190803590602001909291905050506109f5565b604051808215151515815260200191505060405180910390f35b6104c96004803603606081101561047357600080fd5b81019080803573ffffffffffffffffffffffffffffffffffffffff169060200190929190803573ffffffffffffffffffffffffffffffffffffffff16906020019092919080359060200190929190505050610b51565b604051808215151515815260200191505060405180910390f35b610525600480360360208110156104f957600080fd5b81019080803573ffffffffffffffffffffffffffffffffffffffff169060200190929190505050610d2f565b6040518082815260200191505060405180910390f35b61057d6004803603602081101561055157600080fd5b81019080803573ffffffffffffffffffffffffffffffffffffffff169060200190929190505050610d47565b6040518082815260200191505060405180910390f35b600080600090505b83518110156107f4578281815181106105b057fe5b6020026020010151600460008773ffffffffffffffffffffffffffffffffffffffff1673ffffffffffffffffffffffffffffffffffffffff16815260200190815260200160002054101561064f576040517f08c379a0000000000000000000000000000000000000000000000000000000008152600401808060200182810382526022815260200180610e3b6022913960400191505060405180910390fd5b82818151811061065b57fe5b6020026020010151600460008773ffffffffffffffffffffffffffffffffffffffff1673ffffffffffffffffffffffffffffffffffffffff168152602001908152602001600020600082825403925050819055508281815181106106bb57fe5b6020026020010151600460008684815181106106d357fe5b602002602001015173ffffffffffffffffffffffffffffffffffffffff1673ffffffffffffffffffffffffffffffffffffffff168152602001908152602001600020600082825401925050819055507fddf252ad1be2c89b69c2b068fc378daa952ba7f163c4a11628f55a4df523b3ef8585838151811061075057fe5b602002602001015185848151811061076457fe5b6020026020010151604051808473ffffffffffffffffffffffffffffffffffffffff1673ffffffffffffffffffffffffffffffffffffffff1681526020018373ffffffffffffffffffffffffffffffffffffffff1673ffffffffffffffffffffffffffffffffffffffff168152602001828152602001935050505060405180910390a1808060010191505061059b565b50600190509392505050565b60018054600181600116156101000203166002900480601f0160208091040260200160405190810160405280929190818152602001828054600181600116156101000203166002900480156108965780601f1061086b57610100808354040283529160200191610896565b820191906000526020600020905b81548152906001019060200180831161087957829003601f168201915b505050505081565b60035481565b600081600460008573ffffffffffffffffffffffffffffffffffffffff1673ffffffffffffffffffffffffffffffffffffffff16815260200190815260200160002081905550600460008473ffffffffffffffffffffffffffffffffffffffff1673ffffffffffffffffffffffffffffffffffffffff16815260200190815260200160002054905092915050565b6000809054906101000a900473ffffffffffffffffffffffffffffffffffffffff1681565b60028054600181600116156101000203166002900480601f0160208091040260200160405190810160405280929190818152602001828054600181600116156101000203166002900480156109ed5780601f106109c2576101008083540402835291602001916109ed565b820191906000526020600020905b8154815290600101906020018083116109d057829003601f168201915b505050505081565b600081600460008573ffffffffffffffffffffffffffffffffffffffff1673ffffffffffffffffffffffffffffffffffffffff168152602001908152602001600020541015610a8f576040517f08c379a000000000000000000000000000000000000000000000000000000000815260040180806020018281038252602b815260200180610e5d602b913960400191505060405180910390fd5b81600460008573ffffffffffffffffffffffffffffffffffffffff1673ffffffffffffffffffffffffffffffffffffffff168152602001908152602001600020600082825403925050819055507fcc16f5dbb4873280815c1ee09dbd06736cffcc184412cf7a71a0fdb75d397ca58383604051808373ffffffffffffffffffffffffffffffffffffffff1673ffffffffffffffffffffffffffffffffffffffff1681526020018281526020019250505060405180910390a16001905092915050565b600081600460008673ffffffffffffffffffffffffffffffffffffffff1673ffffffffffffffffffffffffffffffffffffffff168152602001908152602001600020541015610beb576040517f08c379a0000000000000000000000000000000000000000000000000000000008152600401808060200182810382526022815260200180610e3b6022913960400191505060405180910390fd5b81600460008673ffffffffffffffffffffffffffffffffffffffff1673ffffffffffffffffffffffffffffffffffffffff1681526020019081526020016000206000828254039250508190555081600460008573ffffffffffffffffffffffffffffffffffffffff1673ffffffffffffffffffffffffffffffffffffffff168152602001908152602001600020600082825401925050819055507fddf252ad1be2c89b69c2b068fc378daa952ba7f163c4a11628f55a4df523b3ef848484604051808473ffffffffffffffffffffffffffffffffffffffff1673ffffffffffffffffffffffffffffffffffffffff1681526020018373ffffffffffffffffffffffffffffffffffffffff1673ffffffffffffffffffffffffffffffffffffffff168152602001828152602001935050505060405180910390a1600190509392505050565b60046020528060005260406000206000915090505481565b60007f134e340554ff8a7d64280a2a28b982df554e2595e5bf45cd39368f31099172a682600460008573ffffffffffffffffffffffffffffffffffffffff1673ffffffffffffffffffffffffffffffffffffffff16815260200190815260200160002054604051808373ffffffffffffffffffffffffffffffffffffffff1673ffffffffffffffffffffffffffffffffffffffff1681526020018281526020019250505060405180910390a1600460008373ffffffffffffffffffffffffffffffffffffffff1673ffffffffffffffffffffffffffffffffffffffff16815260200190815260200160002054905091905056fe5468652073656e646572206e6f74206861766520656e6f75676820746f6b656e73215468652061646472657373206e6f74206861766520656e6f75676820746f6b656e7320746f206275726e21a265627a7a72315820c80af789d9b6b109165d807f7338ef305febed3c2571340293c7bc87f33ad3f664736f6c634300050c00325468652073656e646572206e6f74206861766520656e6f75676820746f6b656e73215468652061646472657373206e6f74206861766520656e6f75676820746f6b656e7320746f206275726e21",
  "source": "pragma solidity >=0.4.21 <0.6.0;\r\n\r\ncontract Token{\r\n    address public owner;\r\n    string public name = \"T-Coin\";\r\n    string public symbol = \"TC\";\r\n    uint256 public totalAmmount;\r\n\r\n    mapping (address => uint256) public balance;\r\n\r\n    event Transfer(\r\n        address _from,\r\n        address _to,\r\n        uint256 _ammount\r\n    );\r\n    event Airdrop(\r\n        address _from,\r\n        address[] _to,\r\n        uint256[] _ammounts\r\n    );\r\n\r\n    event Burn(\r\n        address _address,\r\n        uint256 _ammount\r\n    );\r\n\r\n    event Balance(\r\n        address _address,\r\n        uint256 _balance\r\n    );\r\n\r\n    constructor (uint256 _total) public{\r\n        owner = msg.sender;\r\n        name = \"T-Coin\";\r\n        symbol = \"TC\";\r\n        totalAmmount = _total;\r\n        //give myself total\r\n        balance[owner] = totalAmmount;\r\n\r\n        address inv1 = 0x621d58Ed97F126d5DF7c55f951eaea87e888AFf1;\r\n        address inv2 = 0x6d53E5134EB72A66970Db0f13e11bb8eFa0aF550;\r\n        address inv3 = 0x6192c2D89cc95764420b26d36861340Dd143177C;\r\n        address[] memory invs = new address[](3);\r\n        invs[0] = inv1;\r\n        invs[1] = inv2;\r\n        invs[2] = inv3;\r\n\r\n        uint256[] memory balances = new uint256[](3);\r\n        balances[0] = 1000000;\r\n        balances[1] = 2500000;\r\n        balances[2] = 10000000;\r\n\r\n        require(airdrop(owner,invs,balances),\"Error while airdropping\");\r\n        require(burn(owner,20000000-(balances[0]+balances[1]+balances[2])),\"Error while burning\");\r\n    }\r\n\r\n    function depositTokens(address _address,uint256 _value) public returns(uint256 newBalance){\r\n        balance[_address] = _value;\r\n        return balance[_address];\r\n    }\r\n\r\n    function transfer(address _from,address _to,uint256 _ammount) public returns(bool success){\r\n        //require _from have tokens\r\n        require(balance[_from] >= _ammount,\"The sender not have enough tokens!\");\r\n\r\n        //transfer\r\n        balance[_from] -= _ammount;\r\n        balance[_to] += _ammount;\r\n\r\n        emit Transfer(_from,_to,_ammount);\r\n\r\n        return true;\r\n    }\r\n\r\n    function airdrop(address _from,address[] memory _to,uint256[] memory _ammount) public returns(bool success){\r\n\r\n        for(uint256 i = 0; i < _to.length;i++){\r\n\r\n            require(balance[_from] >= _ammount[i],\"The sender not have enough tokens!\");\r\n\r\n            balance[_from] -= _ammount[i];\r\n            balance[_to[i]] += _ammount[i];\r\n\r\n            emit Transfer(_from,_to[i],_ammount[i]);\r\n        }\r\n        return true;\r\n    }\r\n\r\n    function burn(address _address,uint256 _ammount) public returns(bool success){\r\n        require(balance[_address] >= _ammount,\"The address not have enough tokens to burn!\");\r\n\r\n        balance[_address] -= _ammount;\r\n\r\n        emit Burn(_address,_ammount);\r\n        return true;\r\n    }\r\n\r\n    function getBalance(address _address) public returns(uint256 gotbalance){\r\n        emit Balance(_address,balance[_address]);\r\n        return balance[_address];\r\n    }\r\n}",
  "sourcePath": "C:\\Users\\Nox\\Desktop\\PROG\\Ethereum\\SF-Academy-ICO\\src\\contracts\\Token.sol",
  "compiler": {
    "name": "solc",
    "version": "0.5.12+commit.7709ece9.Emscripten.clang"
  },
  "schemaVersion": "3.0.19",
  "updatedAt": "2019-12-03T19:58:04.710Z",
  "devdoc": {
    "methods": {}
  },
  "userdoc": {
    "methods": {}
  }
}