{
  "contractName": "TokenMarketplace",
  "abi": [
    {
      "inputs": [
        {
          "internalType": "contract Token",
          "name": "_token",
          "type": "address"
        },
        {
          "internalType": "uint256",
          "name": "_price",
          "type": "uint256"
        }
      ],
      "payable": false,
      "stateMutability": "nonpayable",
      "type": "constructor"
    },
    {
      "anonymous": false,
      "inputs": [
        {
          "indexed": false,
          "internalType": "address",
          "name": "_address",
          "type": "address"
        },
        {
          "indexed": false,
          "internalType": "uint256",
          "name": "dollar",
          "type": "uint256"
        }
      ],
      "name": "BalanceDollar",
      "type": "event"
    },
    {
      "anonymous": false,
      "inputs": [
        {
          "indexed": false,
          "internalType": "address",
          "name": "account",
          "type": "address"
        },
        {
          "indexed": false,
          "internalType": "uint256",
          "name": "dollars",
          "type": "uint256"
        },
        {
          "indexed": false,
          "internalType": "uint256",
          "name": "newBalance",
          "type": "uint256"
        }
      ],
      "name": "DollarsDeposit",
      "type": "event"
    },
    {
      "anonymous": false,
      "inputs": [
        {
          "indexed": false,
          "internalType": "address",
          "name": "_address",
          "type": "address"
        },
        {
          "indexed": false,
          "internalType": "uint256",
          "name": "tokens",
          "type": "uint256"
        }
      ],
      "name": "TokenBalance",
      "type": "event"
    },
    {
      "anonymous": false,
      "inputs": [
        {
          "indexed": false,
          "internalType": "uint256",
          "name": "id",
          "type": "uint256"
        },
        {
          "indexed": false,
          "internalType": "uint256",
          "name": "price",
          "type": "uint256"
        },
        {
          "indexed": false,
          "internalType": "address",
          "name": "owner",
          "type": "address"
        },
        {
          "indexed": false,
          "internalType": "uint256",
          "name": "tokens",
          "type": "uint256"
        },
        {
          "indexed": false,
          "internalType": "bool",
          "name": "purchased",
          "type": "bool"
        }
      ],
      "name": "TokenOrdered",
      "type": "event"
    },
    {
      "anonymous": false,
      "inputs": [
        {
          "indexed": false,
          "internalType": "uint256",
          "name": "id",
          "type": "uint256"
        },
        {
          "indexed": false,
          "internalType": "uint256",
          "name": "price",
          "type": "uint256"
        },
        {
          "indexed": false,
          "internalType": "address",
          "name": "owner",
          "type": "address"
        },
        {
          "indexed": false,
          "internalType": "uint256",
          "name": "tokens",
          "type": "uint256"
        },
        {
          "indexed": false,
          "internalType": "bool",
          "name": "purchased",
          "type": "bool"
        }
      ],
      "name": "TokenPurchased",
      "type": "event"
    },
    {
      "constant": true,
      "inputs": [],
      "name": "admin",
      "outputs": [
        {
          "internalType": "address",
          "name": "",
          "type": "address"
        }
      ],
      "payable": false,
      "stateMutability": "view",
      "type": "function"
    },
    {
      "constant": true,
      "inputs": [
        {
          "internalType": "address",
          "name": "",
          "type": "address"
        }
      ],
      "name": "dollars",
      "outputs": [
        {
          "internalType": "uint256",
          "name": "",
          "type": "uint256"
        }
      ],
      "payable": false,
      "stateMutability": "view",
      "type": "function"
    },
    {
      "constant": true,
      "inputs": [
        {
          "internalType": "uint256",
          "name": "",
          "type": "uint256"
        }
      ],
      "name": "offers",
      "outputs": [
        {
          "internalType": "uint256",
          "name": "id",
          "type": "uint256"
        },
        {
          "internalType": "address",
          "name": "owner",
          "type": "address"
        },
        {
          "internalType": "uint256",
          "name": "price",
          "type": "uint256"
        },
        {
          "internalType": "uint256",
          "name": "tokens",
          "type": "uint256"
        },
        {
          "internalType": "bool",
          "name": "purchased",
          "type": "bool"
        }
      ],
      "payable": false,
      "stateMutability": "view",
      "type": "function"
    },
    {
      "constant": true,
      "inputs": [],
      "name": "offersIndex",
      "outputs": [
        {
          "internalType": "uint256",
          "name": "",
          "type": "uint256"
        }
      ],
      "payable": false,
      "stateMutability": "view",
      "type": "function"
    },
    {
      "constant": true,
      "inputs": [],
      "name": "token",
      "outputs": [
        {
          "internalType": "contract Token",
          "name": "",
          "type": "address"
        }
      ],
      "payable": false,
      "stateMutability": "view",
      "type": "function"
    },
    {
      "constant": true,
      "inputs": [],
      "name": "tokenPrice",
      "outputs": [
        {
          "internalType": "uint256",
          "name": "",
          "type": "uint256"
        }
      ],
      "payable": false,
      "stateMutability": "view",
      "type": "function"
    },
    {
      "constant": false,
      "inputs": [
        {
          "internalType": "address",
          "name": "_address",
          "type": "address"
        },
        {
          "internalType": "uint256",
          "name": "_value",
          "type": "uint256"
        }
      ],
      "name": "depositDollars",
      "outputs": [],
      "payable": false,
      "stateMutability": "nonpayable",
      "type": "function"
    },
    {
      "constant": false,
      "inputs": [
        {
          "internalType": "address",
          "name": "_from",
          "type": "address"
        },
        {
          "internalType": "address",
          "name": "_to",
          "type": "address"
        },
        {
          "internalType": "uint256",
          "name": "_value",
          "type": "uint256"
        }
      ],
      "name": "transferDollars",
      "outputs": [
        {
          "internalType": "bool",
          "name": "success",
          "type": "bool"
        }
      ],
      "payable": false,
      "stateMutability": "nonpayable",
      "type": "function"
    },
    {
      "constant": false,
      "inputs": [
        {
          "internalType": "address",
          "name": "_address",
          "type": "address"
        }
      ],
      "name": "getDollars",
      "outputs": [
        {
          "internalType": "uint256",
          "name": "gotDollars",
          "type": "uint256"
        }
      ],
      "payable": false,
      "stateMutability": "nonpayable",
      "type": "function"
    },
    {
      "constant": false,
      "inputs": [
        {
          "internalType": "uint256",
          "name": "nTokens",
          "type": "uint256"
        },
        {
          "internalType": "uint256",
          "name": "_price",
          "type": "uint256"
        }
      ],
      "name": "sell",
      "outputs": [],
      "payable": false,
      "stateMutability": "nonpayable",
      "type": "function"
    },
    {
      "constant": false,
      "inputs": [
        {
          "internalType": "uint256",
          "name": "_id",
          "type": "uint256"
        }
      ],
      "name": "buy",
      "outputs": [],
      "payable": false,
      "stateMutability": "nonpayable",
      "type": "function"
    },
    {
      "constant": false,
      "inputs": [
        {
          "internalType": "address",
          "name": "_address",
          "type": "address"
        }
      ],
      "name": "getTokensBalance",
      "outputs": [
        {
          "internalType": "uint256",
          "name": "gotBalance",
          "type": "uint256"
        }
      ],
      "payable": false,
      "stateMutability": "nonpayable",
      "type": "function"
    }
  ],
  "bytecode": "0x608060405234801561001057600080fd5b5060405161150e38038061150e8339818101604052604081101561003357600080fd5b810190808051906020019092919080519060200190929190505050336000806101000a81548173ffffffffffffffffffffffffffffffffffffffff021916908373ffffffffffffffffffffffffffffffffffffffff16021790555081600260006101000a81548173ffffffffffffffffffffffffffffffffffffffff021916908373ffffffffffffffffffffffffffffffffffffffff160217905550806001819055505050611427806100e76000396000f3fe608060405234801561001057600080fd5b50600436106100b45760003560e01c8063ae02c0e711610071578063ae02c0e714610281578063d79875eb14610307578063d8a09d091461033f578063d96a094a14610397578063f851a440146103c5578063fc0c546a1461040f576100b4565b80630f6a03ff146100b95780632065615d146101075780637ff9b5961461015f5780638a72ea6a1461017d578063a60975b61461020b578063a85cb9e814610229575b600080fd5b610105600480360360408110156100cf57600080fd5b81019080803573ffffffffffffffffffffffffffffffffffffffff16906020019092919080359060200190929190505050610459565b005b6101496004803603602081101561011d57600080fd5b81019080803573ffffffffffffffffffffffffffffffffffffffff169060200190929190505050610553565b6040518082815260200191505060405180910390f35b61016761077e565b6040518082815260200191505060405180910390f35b6101a96004803603602081101561019357600080fd5b8101908080359060200190929190505050610784565b604051808681526020018573ffffffffffffffffffffffffffffffffffffffff1673ffffffffffffffffffffffffffffffffffffffff168152602001848152602001838152602001821515151581526020019550505050505060405180910390f35b6102136107e7565b6040518082815260200191505060405180910390f35b61026b6004803603602081101561023f57600080fd5b81019080803573ffffffffffffffffffffffffffffffffffffffff1690602001909291905050506107ed565b6040518082815260200191505060405180910390f35b6102ed6004803603606081101561029757600080fd5b81019080803573ffffffffffffffffffffffffffffffffffffffff169060200190929190803573ffffffffffffffffffffffffffffffffffffffff16906020019092919080359060200190929190505050610805565b604051808215151515815260200191505060405180910390f35b61033d6004803603604081101561031d57600080fd5b810190808035906020019092919080359060200190929190505050610961565b005b6103816004803603602081101561035557600080fd5b81019080803573ffffffffffffffffffffffffffffffffffffffff169060200190929190505050610d1d565b6040518082815260200191505060405180910390f35b6103c3600480360360208110156103ad57600080fd5b8101908080359060200190929190505050610e10565b005b6103cd611360565b604051808273ffffffffffffffffffffffffffffffffffffffff1673ffffffffffffffffffffffffffffffffffffffff16815260200191505060405180910390f35b610417611385565b604051808273ffffffffffffffffffffffffffffffffffffffff1673ffffffffffffffffffffffffffffffffffffffff16815260200191505060405180910390f35b80600360008473ffffffffffffffffffffffffffffffffffffffff1673ffffffffffffffffffffffffffffffffffffffff168152602001908152602001600020819055507f666a9d5bc52dbbb7a16e9a682a048653872f237636fb3b7a73aa1ac2edf71c118282600360008673ffffffffffffffffffffffffffffffffffffffff1673ffffffffffffffffffffffffffffffffffffffff16815260200190815260200160002054604051808473ffffffffffffffffffffffffffffffffffffffff1673ffffffffffffffffffffffffffffffffffffffff168152602001838152602001828152602001935050505060405180910390a15050565b60007fc7ca56f7f6b4a75d419d4615040fb79e644dabac50749c57b2ae1d1d5204d90682600260009054906101000a900473ffffffffffffffffffffffffffffffffffffffff1673ffffffffffffffffffffffffffffffffffffffff1663f8b2cb4f856040518263ffffffff1660e01b8152600401808273ffffffffffffffffffffffffffffffffffffffff1673ffffffffffffffffffffffffffffffffffffffff168152602001915050602060405180830381600087803b15801561061857600080fd5b505af115801561062c573d6000803e3d6000fd5b505050506040513d602081101561064257600080fd5b8101908080519060200190929190505050604051808373ffffffffffffffffffffffffffffffffffffffff1673ffffffffffffffffffffffffffffffffffffffff1681526020018281526020019250505060405180910390a1600260009054906101000a900473ffffffffffffffffffffffffffffffffffffffff1673ffffffffffffffffffffffffffffffffffffffff1663f8b2cb4f836040518263ffffffff1660e01b8152600401808273ffffffffffffffffffffffffffffffffffffffff1673ffffffffffffffffffffffffffffffffffffffff168152602001915050602060405180830381600087803b15801561073c57600080fd5b505af1158015610750573d6000803e3d6000fd5b505050506040513d602081101561076657600080fd5b81019080805190602001909291905050509050919050565b60015481565b60046020528060005260406000206000915090508060000154908060010160009054906101000a900473ffffffffffffffffffffffffffffffffffffffff16908060020154908060030154908060040160009054906101000a900460ff16905085565b60055481565b60036020528060005260406000206000915090505481565b600081600360008673ffffffffffffffffffffffffffffffffffffffff1673ffffffffffffffffffffffffffffffffffffffff1681526020019081526020016000205410156108bc576040517f08c379a00000000000000000000000000000000000000000000000000000000081526004018080602001828103825260108152602001807f6e6f7420656e6f756768206d6f6e65790000000000000000000000000000000081525060200191505060405180910390fd5b81600360008673ffffffffffffffffffffffffffffffffffffffff1673ffffffffffffffffffffffffffffffffffffffff1681526020019081526020016000206000828254039250508190555081600360008573ffffffffffffffffffffffffffffffffffffffff1673ffffffffffffffffffffffffffffffffffffffff16815260200190815260200160002060008282540192505081905550600190509392505050565b81600260009054906101000a900473ffffffffffffffffffffffffffffffffffffffff1673ffffffffffffffffffffffffffffffffffffffff1663f8b2cb4f336040518263ffffffff1660e01b8152600401808273ffffffffffffffffffffffffffffffffffffffff1673ffffffffffffffffffffffffffffffffffffffff168152602001915050602060405180830381600087803b158015610a0357600080fd5b505af1158015610a17573d6000803e3d6000fd5b505050506040513d6020811015610a2d57600080fd5b81019080805190602001909291905050501015610ab2576040517f08c379a000000000000000000000000000000000000000000000000000000000815260040180806020018281038252601e8152602001807f53656c6c6572206e6f74206861766520656e6f75676820746f6b656e733b000081525060200191505060405180910390fd5b60008211610b28576040517f08c379a000000000000000000000000000000000000000000000000000000000815260040180806020018281038252600e8152602001807f4572726f722072656a656374656400000000000000000000000000000000000081525060200191505060405180910390fd5b60008111610b9e576040517f08c379a000000000000000000000000000000000000000000000000000000000815260040180806020018281038252600e8152602001807f4572726f722072656a656374656400000000000000000000000000000000000081525060200191505060405180910390fd5b6040518060a0016040528060055481526020013373ffffffffffffffffffffffffffffffffffffffff168152602001828152602001838152602001600015158152506004600060055481526020019081526020016000206000820151816000015560208201518160010160006101000a81548173ffffffffffffffffffffffffffffffffffffffff021916908373ffffffffffffffffffffffffffffffffffffffff160217905550604082015181600201556060820151816003015560808201518160040160006101000a81548160ff0219169083151502179055509050507f9d5020189fcd08aec44db02f654f77545392489a9de28f58b2049810247019926005548233856000604051808681526020018581526020018473ffffffffffffffffffffffffffffffffffffffff1673ffffffffffffffffffffffffffffffffffffffff168152602001838152602001821515151581526020019550505050505060405180910390a16005600081548092919060010191905055505050565b60007f49a0e48812ea75dd52cf1b26ed9cf468f6a8db06c42edd55aaf3000ea86a30d882600360008573ffffffffffffffffffffffffffffffffffffffff1673ffffffffffffffffffffffffffffffffffffffff16815260200190815260200160002054604051808373ffffffffffffffffffffffffffffffffffffffff1673ffffffffffffffffffffffffffffffffffffffff1681526020018281526020019250505060405180910390a1600360008373ffffffffffffffffffffffffffffffffffffffff1673ffffffffffffffffffffffffffffffffffffffff168152602001908152602001600020549050919050565b610e186113ab565b600460008381526020019081526020016000206040518060a0016040529081600082015481526020016001820160009054906101000a900473ffffffffffffffffffffffffffffffffffffffff1673ffffffffffffffffffffffffffffffffffffffff1673ffffffffffffffffffffffffffffffffffffffff16815260200160028201548152602001600382015481526020016004820160009054906101000a900460ff16151515158152505090506005548210610f3e576040517f08c379a000000000000000000000000000000000000000000000000000000000815260040180806020018281038252600a8152602001807f4e6f74206578697374730000000000000000000000000000000000000000000081525060200191505060405180910390fd5b600015158160800151151514610fbc576040517f08c379a000000000000000000000000000000000000000000000000000000000815260040180806020018281038252600d8152602001807f507572636861736564207965740000000000000000000000000000000000000081525060200191505060405180910390fd5b8060400151600360003373ffffffffffffffffffffffffffffffffffffffff1673ffffffffffffffffffffffffffffffffffffffff168152602001908152602001600020541015611075576040517f08c379a000000000000000000000000000000000000000000000000000000000815260040180806020018281038252601d8152602001807f4275796572206e6f74206861766520656e6f756768206d6f6e6579733b00000081525060200191505060405180910390fd5b600260009054906101000a900473ffffffffffffffffffffffffffffffffffffffff1673ffffffffffffffffffffffffffffffffffffffff1663beabacc882602001513384606001516040518463ffffffff1660e01b8152600401808473ffffffffffffffffffffffffffffffffffffffff1673ffffffffffffffffffffffffffffffffffffffff1681526020018373ffffffffffffffffffffffffffffffffffffffff1673ffffffffffffffffffffffffffffffffffffffff1681526020018281526020019350505050602060405180830381600087803b15801561115a57600080fd5b505af115801561116e573d6000803e3d6000fd5b505050506040513d602081101561118457600080fd5b8101908080519060200190929190505050611207576040517f08c379a00000000000000000000000000000000000000000000000000000000081526004018080602001828103825260058152602001807f4572726f7200000000000000000000000000000000000000000000000000000081525060200191505060405180910390fd5b61121a3382602001518360400151610805565b61128c576040517f08c379a00000000000000000000000000000000000000000000000000000000081526004018080602001828103825260058152602001807f4572726f7200000000000000000000000000000000000000000000000000000081525060200191505060405180910390fd5b600181608001901515908115158152505060016004600084815260200190815260200160002060040160006101000a81548160ff0219169083151502179055507f1f905204b04579c523ff843b48d38da24b5074b98d905539f0a3ed287f8b0e0d8282604001513384606001516001604051808681526020018581526020018473ffffffffffffffffffffffffffffffffffffffff1673ffffffffffffffffffffffffffffffffffffffff168152602001838152602001821515151581526020019550505050505060405180910390a15050565b6000809054906101000a900473ffffffffffffffffffffffffffffffffffffffff1681565b600260009054906101000a900473ffffffffffffffffffffffffffffffffffffffff1681565b6040518060a0016040528060008152602001600073ffffffffffffffffffffffffffffffffffffffff1681526020016000815260200160008152602001600015158152509056fea265627a7a7231582045f38b28bce98a2455a60e8693d9b31315f9793905e3520dc815828bb46cc2b864736f6c634300050c0032",
  "source": "pragma solidity >=0.4.21 <0.6.0;\r\nimport \"./Token.sol\";\r\n\r\ncontract TokenMarketplace{\r\n    address public admin;\r\n    uint256 public tokenPrice;\r\n    Token public token;\r\n\r\n    struct TokenMarket{\r\n        uint256 id;\r\n        address owner;\r\n        uint price;\r\n        uint256 tokens;\r\n        bool purchased;\r\n    }\r\n\r\n    event BalanceDollar(\r\n        address _address,\r\n        uint dollar\r\n    );\r\n    event TokenBalance(\r\n        address _address,\r\n        uint tokens\r\n    );\r\n\r\n    event TokenOrdered(\r\n        uint id,\r\n        uint price,\r\n        address owner,\r\n        uint256 tokens,\r\n        bool purchased\r\n    );\r\n\r\n    event TokenPurchased(\r\n        uint id,\r\n        uint price,\r\n        address owner,\r\n        uint256 tokens,\r\n        bool purchased\r\n    );\r\n\r\n    event DollarsDeposit(\r\n        address account,\r\n        uint256 dollars,\r\n        uint256 newBalance\r\n    );\r\n\r\n    mapping(address => uint256) public dollars;\r\n    mapping(uint => TokenMarket) public offers;\r\n    uint256 public offersIndex;\r\n\r\n    constructor(Token _token,uint256 _price) public{\r\n        admin = msg.sender;\r\n        token = _token;\r\n        tokenPrice = _price;\r\n    }   \r\n\r\n    function depositDollars(address _address,uint256 _value) public{\r\n        dollars[_address] = _value;\r\n        \r\n        emit DollarsDeposit(_address,_value,dollars[_address]);\r\n    }\r\n\r\n    function transferDollars(address _from,address _to,uint256 _value) public returns(bool success){\r\n        require(dollars[_from] >= _value,\"not enough money\");\r\n\r\n        dollars[_from] -= _value;\r\n        dollars[_to] += _value;\r\n\r\n        return true;\r\n    }\r\n\r\n    function getDollars(address _address) public returns(uint256 gotDollars){\r\n        emit BalanceDollar(_address,dollars[_address]);\r\n        return dollars[_address];\r\n    }\r\n\r\n    function sell(uint nTokens, uint _price) public{\r\n        require(token.getBalance(msg.sender) >= nTokens,\"Seller not have enough tokens;\");\r\n        require(nTokens > 0,\"Error rejected\");\r\n        require(_price > 0,\"Error rejected\");\r\n\r\n        offers[offersIndex] = TokenMarket(offersIndex,msg.sender,_price,nTokens,false);\r\n    \r\n        //event\r\n        \r\n        emit TokenOrdered(offersIndex,_price,msg.sender,nTokens,false);\r\n        offersIndex++;\r\n    }\r\n\r\n    function buy(uint _id) public{\r\n        TokenMarket memory offer = offers[_id];\r\n\r\n        require(_id < offersIndex,\"Not exists\");\r\n        require(offer.purchased == false,\"Purchased yet\");\r\n        require(dollars[msg.sender] >= offer.price,\"Buyer not have enough moneys;\");\r\n        require(token.transfer(offer.owner,msg.sender,offer.tokens),\"Error\");\r\n        require(transferDollars(msg.sender,offer.owner, offer.price),\"Error\");\r\n        \r\n        offer.purchased = true;\r\n        offers[_id].purchased = true;\r\n\r\n        //event\r\n        emit TokenPurchased(_id,offer.price,msg.sender,offer.tokens,true);\r\n    }\r\n\r\n    function getTokensBalance(address _address) public returns(uint256 gotBalance){\r\n        emit TokenBalance(_address, token.getBalance(_address));\r\n        return token.getBalance(_address);\r\n    }\r\n}",
  "sourcePath": "C:/Users/Nox/Desktop/PROG/Ethereum/SF-Academy-ICO/src/contracts/TokenMarketplace.sol",
  "compiler": {
    "name": "solc",
    "version": "0.5.12+commit.7709ece9.Emscripten.clang"
  },
  "schemaVersion": "3.0.19",
  "updatedAt": "2019-12-03T19:58:04.720Z",
  "devdoc": {
    "methods": {}
  },
  "userdoc": {
    "methods": {}
  }
}