{
  "contractName": "TokenMarketplace",
  "abi": [
    {
      "constant": true,
      "inputs": [],
      "name": "dollarsIndex",
      "outputs": [
        {
          "name": "",
          "type": "uint256"
        }
      ],
      "payable": false,
      "stateMutability": "view",
      "type": "function"
    },
    {
      "constant": true,
      "inputs": [],
      "name": "tokenPrice",
      "outputs": [
        {
          "name": "",
          "type": "uint256"
        }
      ],
      "payable": false,
      "stateMutability": "view",
      "type": "function"
    },
    {
      "constant": true,
      "inputs": [
        {
          "name": "",
          "type": "uint256"
        }
      ],
      "name": "offers",
      "outputs": [
        {
          "name": "id",
          "type": "uint256"
        },
        {
          "name": "owner",
          "type": "address"
        },
        {
          "name": "price",
          "type": "uint256"
        },
        {
          "name": "tokens",
          "type": "uint256"
        },
        {
          "name": "purchased",
          "type": "bool"
        }
      ],
      "payable": false,
      "stateMutability": "view",
      "type": "function"
    },
    {
      "constant": true,
      "inputs": [
        {
          "name": "",
          "type": "address"
        }
      ],
      "name": "dollars",
      "outputs": [
        {
          "name": "",
          "type": "uint256"
        }
      ],
      "payable": false,
      "stateMutability": "view",
      "type": "function"
    },
    {
      "constant": true,
      "inputs": [],
      "name": "admin",
      "outputs": [
        {
          "name": "",
          "type": "address"
        }
      ],
      "payable": false,
      "stateMutability": "view",
      "type": "function"
    },
    {
      "constant": true,
      "inputs": [],
      "name": "token",
      "outputs": [
        {
          "name": "",
          "type": "address"
        }
      ],
      "payable": false,
      "stateMutability": "view",
      "type": "function"
    },
    {
      "inputs": [
        {
          "name": "_token",
          "type": "address"
        },
        {
          "name": "_price",
          "type": "uint256"
        }
      ],
      "payable": false,
      "stateMutability": "nonpayable",
      "type": "constructor"
    },
    {
      "anonymous": false,
      "inputs": [
        {
          "indexed": false,
          "name": "_address",
          "type": "address"
        },
        {
          "indexed": false,
          "name": "dollar",
          "type": "uint256"
        }
      ],
      "name": "BalanceDollar",
      "type": "event"
    },
    {
      "anonymous": false,
      "inputs": [
        {
          "indexed": false,
          "name": "id",
          "type": "uint256"
        },
        {
          "indexed": false,
          "name": "price",
          "type": "uint256"
        },
        {
          "indexed": false,
          "name": "owner",
          "type": "address"
        },
        {
          "indexed": false,
          "name": "purchased",
          "type": "bool"
        }
      ],
      "name": "TokenOrdered",
      "type": "event"
    },
    {
      "anonymous": false,
      "inputs": [
        {
          "indexed": false,
          "name": "id",
          "type": "uint256"
        },
        {
          "indexed": false,
          "name": "price",
          "type": "uint256"
        },
        {
          "indexed": false,
          "name": "owner",
          "type": "address"
        },
        {
          "indexed": false,
          "name": "purchased",
          "type": "bool"
        }
      ],
      "name": "TokenPurchased",
      "type": "event"
    },
    {
      "constant": false,
      "inputs": [
        {
          "name": "_value",
          "type": "uint256"
        }
      ],
      "name": "depositDollars",
      "outputs": [
        {
          "name": "success",
          "type": "bool"
        }
      ],
      "payable": false,
      "stateMutability": "nonpayable",
      "type": "function"
    },
    {
      "constant": false,
      "inputs": [
        {
          "name": "_from",
          "type": "address"
        },
        {
          "name": "_to",
          "type": "address"
        },
        {
          "name": "_value",
          "type": "uint256"
        }
      ],
      "name": "transferDollars",
      "outputs": [
        {
          "name": "success",
          "type": "bool"
        }
      ],
      "payable": false,
      "stateMutability": "nonpayable",
      "type": "function"
    },
    {
      "constant": false,
      "inputs": [
        {
          "name": "_address",
          "type": "address"
        }
      ],
      "name": "getDollars",
      "outputs": [
        {
          "name": "gotDollars",
          "type": "uint256"
        }
      ],
      "payable": false,
      "stateMutability": "nonpayable",
      "type": "function"
    },
    {
      "constant": false,
      "inputs": [
        {
          "name": "nTokens",
          "type": "uint256"
        },
        {
          "name": "_price",
          "type": "uint256"
        }
      ],
      "name": "sell",
      "outputs": [
        {
          "name": "success",
          "type": "bool"
        }
      ],
      "payable": false,
      "stateMutability": "nonpayable",
      "type": "function"
    },
    {
      "constant": false,
      "inputs": [
        {
          "name": "_id",
          "type": "uint256"
        }
      ],
      "name": "buy",
      "outputs": [
        {
          "name": "success",
          "type": "bool"
        }
      ],
      "payable": false,
      "stateMutability": "nonpayable",
      "type": "function"
    }
  ],
  "bytecode": "0x608060405234801561001057600080fd5b5060405160408061105c8339810180604052810190808051906020019092919080519060200190929190505050336000806101000a81548173ffffffffffffffffffffffffffffffffffffffff021916908373ffffffffffffffffffffffffffffffffffffffff16021790555081600260006101000a81548173ffffffffffffffffffffffffffffffffffffffff021916908373ffffffffffffffffffffffffffffffffffffffff160217905550806001819055505050610f86806100d66000396000f3006080604052600436106100af576000357c0100000000000000000000000000000000000000000000000000000000900463ffffffff168063650b3406146100b45780637ff9b596146100df5780638a72ea6a1461010a578063a85cb9e814610197578063ae02c0e7146101ee578063d79875eb14610273578063d8a09d09146102c2578063d96a094a14610319578063eb93e7481461035e578063f851a440146103a3578063fc0c546a146103fa575b600080fd5b3480156100c057600080fd5b506100c9610451565b6040518082815260200191505060405180910390f35b3480156100eb57600080fd5b506100f4610457565b6040518082815260200191505060405180910390f35b34801561011657600080fd5b506101356004803603810190808035906020019092919050505061045d565b604051808681526020018573ffffffffffffffffffffffffffffffffffffffff1673ffffffffffffffffffffffffffffffffffffffff168152602001848152602001838152602001821515151581526020019550505050505060405180910390f35b3480156101a357600080fd5b506101d8600480360381019080803573ffffffffffffffffffffffffffffffffffffffff1690602001909291905050506104c0565b6040518082815260200191505060405180910390f35b3480156101fa57600080fd5b50610259600480360381019080803573ffffffffffffffffffffffffffffffffffffffff169060200190929190803573ffffffffffffffffffffffffffffffffffffffff169060200190929190803590602001909291905050506104d8565b604051808215151515815260200191505060405180910390f35b34801561027f57600080fd5b506102a86004803603810190808035906020019092919080359060200190929190505050610636565b604051808215151515815260200191505060405180910390f35b3480156102ce57600080fd5b50610303600480360381019080803573ffffffffffffffffffffffffffffffffffffffff169060200190929190505050610925565b6040518082815260200191505060405180910390f35b34801561032557600080fd5b5061034460048036038101908080359060200190929190505050610a18565b604051808215151515815260200191505060405180910390f35b34801561036a57600080fd5b5061038960048036038101908080359060200190929190505050610e6f565b604051808215151515815260200191505060405180910390f35b3480156103af57600080fd5b506103b8610ec7565b604051808273ffffffffffffffffffffffffffffffffffffffff1673ffffffffffffffffffffffffffffffffffffffff16815260200191505060405180910390f35b34801561040657600080fd5b5061040f610eec565b604051808273ffffffffffffffffffffffffffffffffffffffff1673ffffffffffffffffffffffffffffffffffffffff16815260200191505060405180910390f35b60055481565b60015481565b60046020528060005260406000206000915090508060000154908060010160009054906101000a900473ffffffffffffffffffffffffffffffffffffffff16908060020154908060030154908060040160009054906101000a900460ff16905085565b60036020528060005260406000206000915090505481565b600081600360008673ffffffffffffffffffffffffffffffffffffffff1673ffffffffffffffffffffffffffffffffffffffff1681526020019081526020016000205410151515610591576040517f08c379a00000000000000000000000000000000000000000000000000000000081526004018080602001828103825260108152602001807f6e6f7420656e6f756768206d6f6e65790000000000000000000000000000000081525060200191505060405180910390fd5b81600360008673ffffffffffffffffffffffffffffffffffffffff1673ffffffffffffffffffffffffffffffffffffffff1681526020019081526020016000206000828254039250508190555081600360008573ffffffffffffffffffffffffffffffffffffffff1673ffffffffffffffffffffffffffffffffffffffff16815260200190815260200160002060008282540192505081905550600190509392505050565b600082600260009054906101000a900473ffffffffffffffffffffffffffffffffffffffff1673ffffffffffffffffffffffffffffffffffffffff1663f8b2cb4f336040518263ffffffff167c0100000000000000000000000000000000000000000000000000000000028152600401808273ffffffffffffffffffffffffffffffffffffffff1673ffffffffffffffffffffffffffffffffffffffff168152602001915050602060405180830381600087803b1580156106f657600080fd5b505af115801561070a573d6000803e3d6000fd5b505050506040513d602081101561072057600080fd5b8101908080519060200190929190505050101515156107a7576040517f08c379a000000000000000000000000000000000000000000000000000000000815260040180806020018281038252601e8152602001807f53656c6c6572206e6f74206861766520656e6f75676820746f6b656e733b000081525060200191505060405180910390fd5b60a06040519081016040528060055481526020013373ffffffffffffffffffffffffffffffffffffffff168152602001838152602001848152602001600015158152506004600060055481526020019081526020016000206000820151816000015560208201518160010160006101000a81548173ffffffffffffffffffffffffffffffffffffffff021916908373ffffffffffffffffffffffffffffffffffffffff160217905550604082015181600201556060820151816003015560808201518160040160006101000a81548160ff0219169083151502179055509050507f900a0c79b40dece27dd60a56f405cf2a14939256d2799c8602dad2ab6e6feb4f60055483336000604051808581526020018481526020018373ffffffffffffffffffffffffffffffffffffffff1673ffffffffffffffffffffffffffffffffffffffff1681526020018215151515815260200194505050505060405180910390a16005600081548092919060010191905055506001905092915050565b60007f49a0e48812ea75dd52cf1b26ed9cf468f6a8db06c42edd55aaf3000ea86a30d882600360008573ffffffffffffffffffffffffffffffffffffffff1673ffffffffffffffffffffffffffffffffffffffff16815260200190815260200160002054604051808373ffffffffffffffffffffffffffffffffffffffff1673ffffffffffffffffffffffffffffffffffffffff1681526020018281526020019250505060405180910390a1600360008373ffffffffffffffffffffffffffffffffffffffff1673ffffffffffffffffffffffffffffffffffffffff168152602001908152602001600020549050919050565b6000610a22610f12565b6004600084815260200190815260200160002060a06040519081016040529081600082015481526020016001820160009054906101000a900473ffffffffffffffffffffffffffffffffffffffff1673ffffffffffffffffffffffffffffffffffffffff1673ffffffffffffffffffffffffffffffffffffffff16815260200160028201548152602001600382015481526020016004820160009054906101000a900460ff1615151515815250509050600154816060015102600360003373ffffffffffffffffffffffffffffffffffffffff1673ffffffffffffffffffffffffffffffffffffffff1681526020019081526020016000205410151515610b91576040517f08c379a000000000000000000000000000000000000000000000000000000000815260040180806020018281038252601d8152602001807f4275796572206e6f74206861766520656e6f756768206d6f6e6579733b00000081525060200191505060405180910390fd5b600260009054906101000a900473ffffffffffffffffffffffffffffffffffffffff1673ffffffffffffffffffffffffffffffffffffffff1663beabacc882602001513384606001516040518463ffffffff167c0100000000000000000000000000000000000000000000000000000000028152600401808473ffffffffffffffffffffffffffffffffffffffff1673ffffffffffffffffffffffffffffffffffffffff1681526020018373ffffffffffffffffffffffffffffffffffffffff1673ffffffffffffffffffffffffffffffffffffffff1681526020018281526020019350505050602060405180830381600087803b158015610c9257600080fd5b505af1158015610ca6573d6000803e3d6000fd5b505050506040513d6020811015610cbc57600080fd5b81019080805190602001909291905050501515610d41576040517f08c379a00000000000000000000000000000000000000000000000000000000081526004018080602001828103825260058152602001807f4572726f7200000000000000000000000000000000000000000000000000000081525060200191505060405180910390fd5b610d588160200151336001548460600151026104d8565b1515610dcc576040517f08c379a00000000000000000000000000000000000000000000000000000000081526004018080602001828103825260058152602001807f4572726f7200000000000000000000000000000000000000000000000000000081525060200191505060405180910390fd5b60018160800190151590811515815250507f6f3376dd9de31e7902d4397638ea11c52c438f7902bd33b4b7095633dc6e96a883600154836060015102336001604051808581526020018481526020018373ffffffffffffffffffffffffffffffffffffffff1673ffffffffffffffffffffffffffffffffffffffff1681526020018215151515815260200194505050505060405180910390a16001915050919050565b600081600360003373ffffffffffffffffffffffffffffffffffffffff1673ffffffffffffffffffffffffffffffffffffffff1681526020019081526020016000206000828254019250508190555060019050919050565b6000809054906101000a900473ffffffffffffffffffffffffffffffffffffffff1681565b600260009054906101000a900473ffffffffffffffffffffffffffffffffffffffff1681565b60a06040519081016040528060008152602001600073ffffffffffffffffffffffffffffffffffffffff168152602001600081526020016000815260200160001515815250905600a165627a7a7230582002c85dbf97fb11727010181f738e996a2709554dbc06ad28ad2651a2a1ff52870029",
  "source": "pragma solidity >=0.4.21 <0.6.0;\r\nimport \"./Token.sol\";\r\n\r\ncontract TokenMarketplace{\r\n    address public admin;\r\n    uint256 public tokenPrice;\r\n    Token public token;\r\n\r\n    struct TokenMarket{\r\n        uint id;\r\n        address owner;\r\n        uint price;\r\n        uint256 tokens;\r\n        bool purchased;\r\n    }\r\n\r\n    event BalanceDollar(\r\n        address _address,\r\n        uint dollar\r\n    );\r\n\r\n    event TokenOrdered(\r\n        uint id,\r\n        uint price,\r\n        address owner,\r\n        bool purchased\r\n    );\r\n\r\n    event TokenPurchased(\r\n        uint id,\r\n        uint price,\r\n        address owner,\r\n        bool purchased\r\n    );\r\n    //TODO : all the function\r\n    \r\n    mapping(address => uint256) public dollars;\r\n    mapping(uint => TokenMarket) public offers;\r\n    uint256 public dollarsIndex;\r\n\r\n    constructor(Token _token,uint256 _price) public{\r\n        admin = msg.sender;\r\n        token = _token;\r\n        tokenPrice = _price;\r\n    }   \r\n\r\n    function depositDollars(uint256 _value) public returns(bool success){\r\n        dollars[msg.sender] += _value;\r\n        return true;\r\n    }\r\n\r\n    function transferDollars(address _from,address _to,uint256 _value) public returns(bool success){\r\n        require(dollars[_from] >= _value,\"not enough money\");\r\n\r\n        dollars[_from] -= _value;\r\n        dollars[_to] += _value;\r\n\r\n        return true;\r\n    }\r\n\r\n    function getDollars(address _address) public returns(uint256 gotDollars){\r\n        emit BalanceDollar(_address,dollars[_address]);\r\n        return dollars[_address];\r\n    }\r\n\r\n    function sell(uint nTokens, uint _price) public returns(bool success){\r\n        require(token.getBalance(msg.sender) >= nTokens,\"Seller not have enough tokens;\");\r\n\r\n        offers[dollarsIndex] = TokenMarket(dollarsIndex,msg.sender,_price,nTokens,false);\r\n    \r\n        //event\r\n        emit TokenOrdered(dollarsIndex,_price,msg.sender,false);\r\n        dollarsIndex++;\r\n        return true;\r\n    }\r\n\r\n    function buy(uint _id) public returns(bool success){\r\n        TokenMarket memory offer = offers[_id];\r\n\r\n        require(dollars[msg.sender] >= offer.tokens * tokenPrice,\"Buyer not have enough moneys;\");\r\n        require(token.transfer(offer.owner,msg.sender,offer.tokens),\"Error\");\r\n        require(transferDollars(offer.owner, msg.sender, offer.tokens * tokenPrice),\"Error\");\r\n\r\n        offer.purchased = true;\r\n\r\n        //event\r\n        emit TokenPurchased(_id,offer.tokens * tokenPrice,msg.sender,true);\r\n\r\n        return true;\r\n    }\r\n}",
  "sourcePath": "src\\contracts\\TokenMarketplace.sol",
  "compiler": {
    "name": "solc",
    "version": "0.4.24+commit.e67f0147.Emscripten.clang"
  },
  "schemaVersion": "2.0.0",
  "updatedAt": "2019-11-17T09:54:34.001Z"
}